{
  "contractName": "Peer",
  "abi": [
    {
      "anonymous": false,
      "inputs": [
        {
          "indexed": false,
          "internalType": "uint256",
          "name": "count",
          "type": "uint256"
        }
      ],
      "name": "AcceptedCount",
      "type": "event"
    },
    {
      "inputs": [],
      "name": "paperCount",
      "outputs": [
        {
          "internalType": "uint256",
          "name": "",
          "type": "uint256"
        }
      ],
      "stateMutability": "view",
      "type": "function",
      "constant": true
    },
    {
      "inputs": [
        {
          "internalType": "uint256",
          "name": "",
          "type": "uint256"
        }
      ],
      "name": "papers",
      "outputs": [
        {
          "internalType": "string",
          "name": "title",
          "type": "string"
        },
        {
          "internalType": "string",
          "name": "author",
          "type": "string"
        },
        {
          "internalType": "string",
          "name": "content",
          "type": "string"
        },
        {
          "internalType": "uint256",
          "name": "status",
          "type": "uint256"
        },
        {
          "internalType": "uint256",
          "name": "reviewCount",
          "type": "uint256"
        }
      ],
      "stateMutability": "view",
      "type": "function",
      "constant": true
    },
    {
      "inputs": [
        {
          "internalType": "string",
          "name": "_title",
          "type": "string"
        },
        {
          "internalType": "string",
          "name": "_author",
          "type": "string"
        },
        {
          "internalType": "string",
          "name": "_content",
          "type": "string"
        }
      ],
      "name": "submitPaper",
      "outputs": [],
      "stateMutability": "payable",
      "type": "function",
      "payable": true
    },
    {
      "inputs": [
        {
          "internalType": "uint256",
          "name": "_paperId",
          "type": "uint256"
        },
        {
          "internalType": "uint256",
          "name": "_status",
          "type": "uint256"
        }
      ],
      "name": "reviewPaper",
      "outputs": [],
      "stateMutability": "nonpayable",
      "type": "function"
    },
    {
      "inputs": [
        {
          "internalType": "uint256",
          "name": "_paperId",
          "type": "uint256"
        },
        {
          "internalType": "address",
          "name": "_reviewer",
          "type": "address"
        }
      ],
      "name": "reviewExists",
      "outputs": [
        {
          "internalType": "bool",
          "name": "",
          "type": "bool"
        }
      ],
      "stateMutability": "view",
      "type": "function",
      "constant": true
    }
  ],
  "bytecode": "0x608060405234801561001057600080fd5b506111ea806100206000396000f3fe60806040526004361061004a5760003560e01c806346739d161461004f5780635e775a271461008c578063a56c2cb9146100cd578063e6397e81146100f8578063ed50eee914610114575b600080fd5b34801561005b57600080fd5b50610076600480360381019061007191906108a3565b61013d565b60405161008391906108fe565b60405180910390f35b34801561009857600080fd5b506100b360048036038101906100ae9190610919565b610212565b6040516100c49594939291906109e5565b60405180910390f35b3480156100d957600080fd5b506100e26103e0565b6040516100ef9190610a4d565b60405180910390f35b610112600480360381019061010d9190610b9d565b6103e6565b005b34801561012057600080fd5b5061013b60048036038101906101369190610c44565b6104bf565b005b600080600090505b60008085815260200190815260200160002060050180549050811015610206578273ffffffffffffffffffffffffffffffffffffffff1660008086815260200190815260200160002060050182815481106101a3576101a2610c84565b5b9060005260206000200160009054906101000a900473ffffffffffffffffffffffffffffffffffffffff1673ffffffffffffffffffffffffffffffffffffffff16036101f357600191505061020c565b80806101fe90610ce2565b915050610145565b50600090505b92915050565b600060205280600052604060002060009150905080600001805461023590610d59565b80601f016020809104026020016040519081016040528092919081815260200182805461026190610d59565b80156102ae5780601f10610283576101008083540402835291602001916102ae565b820191906000526020600020905b81548152906001019060200180831161029157829003601f168201915b5050505050908060010180546102c390610d59565b80601f01602080910402602001604051908101604052809291908181526020018280546102ef90610d59565b801561033c5780601f106103115761010080835404028352916020019161033c565b820191906000526020600020905b81548152906001019060200180831161031f57829003601f168201915b50505050509080600201805461035190610d59565b80601f016020809104026020016040519081016040528092919081815260200182805461037d90610d59565b80156103ca5780601f1061039f576101008083540402835291602001916103ca565b820191906000526020600020905b8154815290600101906020018083116103ad57829003601f168201915b5050505050908060030154908060040154905085565b60015481565b600160008154809291906103f990610ce2565b919050555060606040518060c00160405280858152602001848152602001838152602001600181526020016000815260200182815250600080600154815260200190815260200160002060008201518160000190816104589190610f36565b50602082015181600101908161046e9190610f36565b5060408201518160020190816104849190610f36565b50606082015181600301556080820151816004015560a08201518160050190805190602001906104b5929190610754565b5090505050505050565b60028114806104ce5750600381145b61050d576040517f08c379a000000000000000000000000000000000000000000000000000000000815260040161050490611054565b60405180910390fd5b60016000808481526020019081526020016000206003015414610565576040517f08c379a000000000000000000000000000000000000000000000000000000000815260040161055c906110c0565b60405180910390fd5b61056f823361013d565b156105af576040517f08c379a00000000000000000000000000000000000000000000000000000000081526004016105a690611152565b60405180910390fd5b600080838152602001908152602001600020600501339080600181540180825580915050600190039060005260206000200160009091909190916101000a81548173ffffffffffffffffffffffffffffffffffffffff021916908373ffffffffffffffffffffffffffffffffffffffff160217905550600080838152602001908152602001600020600401600081548092919061064b90610ce2565b919050555060056000808481526020019081526020016000206004015403610750576000805b600080858152602001908152602001600020600501805490508110156106dd576001600080868152602001908152602001600020600301541480156106b65750600283145b156106ca5781806106c690610ce2565b9250505b80806106d590610ce2565b915050610671565b506003600080858152602001908152602001600020600401546107009190611172565b60048261070d9190611172565b106107325760026000808581526020019081526020016000206003018190555061074e565b6003600080858152602001908152602001600020600301819055505b505b5050565b8280548282559060005260206000209081019282156107cd579160200282015b828111156107cc5782518260006101000a81548173ffffffffffffffffffffffffffffffffffffffff021916908373ffffffffffffffffffffffffffffffffffffffff16021790555091602001919060010190610774565b5b5090506107da91906107de565b5090565b5b808211156107f75760008160009055506001016107df565b5090565b6000604051905090565b600080fd5b600080fd5b6000819050919050565b6108228161080f565b811461082d57600080fd5b50565b60008135905061083f81610819565b92915050565b600073ffffffffffffffffffffffffffffffffffffffff82169050919050565b600061087082610845565b9050919050565b61088081610865565b811461088b57600080fd5b50565b60008135905061089d81610877565b92915050565b600080604083850312156108ba576108b9610805565b5b60006108c885828601610830565b92505060206108d98582860161088e565b9150509250929050565b60008115159050919050565b6108f8816108e3565b82525050565b600060208201905061091360008301846108ef565b92915050565b60006020828403121561092f5761092e610805565b5b600061093d84828501610830565b91505092915050565b600081519050919050565b600082825260208201905092915050565b60005b83811015610980578082015181840152602081019050610965565b60008484015250505050565b6000601f19601f8301169050919050565b60006109a882610946565b6109b28185610951565b93506109c2818560208601610962565b6109cb8161098c565b840191505092915050565b6109df8161080f565b82525050565b600060a08201905081810360008301526109ff818861099d565b90508181036020830152610a13818761099d565b90508181036040830152610a27818661099d565b9050610a3660608301856109d6565b610a4360808301846109d6565b9695505050505050565b6000602082019050610a6260008301846109d6565b92915050565b600080fd5b600080fd5b7f4e487b7100000000000000000000000000000000000000000000000000000000600052604160045260246000fd5b610aaa8261098c565b810181811067ffffffffffffffff82111715610ac957610ac8610a72565b5b80604052505050565b6000610adc6107fb565b9050610ae88282610aa1565b919050565b600067ffffffffffffffff821115610b0857610b07610a72565b5b610b118261098c565b9050602081019050919050565b82818337600083830152505050565b6000610b40610b3b84610aed565b610ad2565b905082815260208101848484011115610b5c57610b5b610a6d565b5b610b67848285610b1e565b509392505050565b600082601f830112610b8457610b83610a68565b5b8135610b94848260208601610b2d565b91505092915050565b600080600060608486031215610bb657610bb5610805565b5b600084013567ffffffffffffffff811115610bd457610bd361080a565b5b610be086828701610b6f565b935050602084013567ffffffffffffffff811115610c0157610c0061080a565b5b610c0d86828701610b6f565b925050604084013567ffffffffffffffff811115610c2e57610c2d61080a565b5b610c3a86828701610b6f565b9150509250925092565b60008060408385031215610c5b57610c5a610805565b5b6000610c6985828601610830565b9250506020610c7a85828601610830565b9150509250929050565b7f4e487b7100000000000000000000000000000000000000000000000000000000600052603260045260246000fd5b7f4e487b7100000000000000000000000000000000000000000000000000000000600052601160045260246000fd5b6000610ced8261080f565b91507fffffffffffffffffffffffffffffffffffffffffffffffffffffffffffffffff8203610d1f57610d1e610cb3565b5b600182019050919050565b7f4e487b7100000000000000000000000000000000000000000000000000000000600052602260045260246000fd5b60006002820490506001821680610d7157607f821691505b602082108103610d8457610d83610d2a565b5b50919050565b60008190508160005260206000209050919050565b60006020601f8301049050919050565b600082821b905092915050565b600060088302610dec7fffffffffffffffffffffffffffffffffffffffffffffffffffffffffffffffff82610daf565b610df68683610daf565b95508019841693508086168417925050509392505050565b6000819050919050565b6000610e33610e2e610e298461080f565b610e0e565b61080f565b9050919050565b6000819050919050565b610e4d83610e18565b610e61610e5982610e3a565b848454610dbc565b825550505050565b600090565b610e76610e69565b610e81818484610e44565b505050565b5b81811015610ea557610e9a600082610e6e565b600181019050610e87565b5050565b601f821115610eea57610ebb81610d8a565b610ec484610d9f565b81016020851015610ed3578190505b610ee7610edf85610d9f565b830182610e86565b50505b505050565b600082821c905092915050565b6000610f0d60001984600802610eef565b1980831691505092915050565b6000610f268383610efc565b9150826002028217905092915050565b610f3f82610946565b67ffffffffffffffff811115610f5857610f57610a72565b5b610f628254610d59565b610f6d828285610ea9565b600060209050601f831160018114610fa05760008415610f8e578287015190505b610f988582610f1a565b865550611000565b601f198416610fae86610d8a565b60005b82811015610fd657848901518255600182019150602085019450602081019050610fb1565b86831015610ff35784890151610fef601f891682610efc565b8355505b6001600288020188555050505b505050505050565b7f496e76616c696420737461747573000000000000000000000000000000000000600082015250565b600061103e600e83610951565b915061104982611008565b602082019050919050565b6000602082019050818103600083015261106d81611031565b9050919050565b7f5061706572206973206e6f7420756e6465722072657669657700000000000000600082015250565b60006110aa601983610951565b91506110b582611074565b602082019050919050565b600060208201905081810360008301526110d98161109d565b9050919050565b7f596f75206861766520616c72656164792072657669657765642074686973207060008201527f6170657200000000000000000000000000000000000000000000000000000000602082015250565b600061113c602483610951565b9150611147826110e0565b604082019050919050565b6000602082019050818103600083015261116b8161112f565b9050919050565b600061117d8261080f565b91506111888361080f565b92508282026111968161080f565b915082820484148315176111ad576111ac610cb3565b5b509291505056fea26469706673582212208d1f8830d5026ee754c432cb2341ce028f83c62f42acad07f9adce00d04f41b264736f6c63430008110033",
  "immutableReferences": {},
  "source": "//SPDX-License-Identifier: MIT\r\n\r\npragma solidity ^0.8.0;\r\n\r\ncontract Peer {\r\n    struct Paper {\r\n        string title;\r\n        string author;\r\n        string content;\r\n        uint256 status; // 0: submitted, 1: under review, 2: accepted, 3: rejected\r\n        uint256 reviewCount;\r\n        address[] hasVoted;\r\n    }\r\n    \r\n    mapping (uint256 => Paper) public papers;\r\n    uint256 public paperCount;\r\n    \r\n    function submitPaper(string memory _title, string memory _author, string memory _content) public payable {\r\n        paperCount++;\r\n        address[] memory hasVoted;\r\n        papers[paperCount] = Paper(_title, _author, _content, 1, 0, hasVoted);\r\n    }\r\n    \r\n    event AcceptedCount(uint256 count);\r\n\r\n    function reviewPaper(uint256 _paperId, uint256 _status) public {\r\n        require(_status == 2 || _status == 3, \"Invalid status\");\r\n        require(papers[_paperId].status == 1, \"Paper is not under review\");\r\n        require(!reviewExists(_paperId, msg.sender), \"You have already reviewed this paper\");\r\n        \r\n        papers[_paperId].hasVoted.push(msg.sender);\r\n        papers[_paperId].reviewCount++;\r\n\r\n        if (papers[_paperId].reviewCount == 5) {\r\n            uint256 acceptedCount = 0;\r\n            for (uint256 i = 0; i < papers[_paperId].hasVoted.length; i++) {\r\n                if (papers[_paperId].status == 1 && _status == 2) {\r\n                    acceptedCount++;\r\n                }\r\n            }\r\n            \r\n            if((acceptedCount * 4) >= (papers[_paperId].reviewCount * 3)) {\r\n                papers[_paperId].status = 2;\r\n            } else {\r\n                papers[_paperId].status = 3;\r\n            }\r\n\r\n        }\r\n        \r\n    }\r\n    \r\n    function reviewExists(uint256 _paperId, address _reviewer) public view returns (bool) {\r\n        for (uint256 i = 0; i < papers[_paperId].hasVoted.length; i++) {\r\n            if (papers[_paperId].hasVoted[i] == _reviewer) {\r\n                return true;\r\n            }\r\n        }\r\n        return false;\r\n    }\r\n}\r\n",
  "sourcePath": "C:\\Users\\Farhan\\.vscode\\peer-review\\contracts\\Peer.sol",
  "compiler": {
    "name": "solc",
    "version": "0.8.17+commit.8df45f5f.Emscripten.clang"
  },
  "schemaVersion": "3.4.11",
  "updatedAt": "2023-03-31T02:34:57.910Z",
  "networkType": "ethereum",
  "devdoc": {
    "kind": "dev",
    "methods": {},
    "version": 1
  },
  "userdoc": {
    "kind": "user",
    "methods": {},
    "version": 1
  }
}